:100000000C9463000C94CD010C9480000C9480003F
:100010000C9480000C9480000C9480000C94800060
:100020000C9480000C9480000C9480000C94800050
:100030000C9480000C9480000C9480000C94800040
:100040000C9480000C9480000C9480000C94800030
:100050000C9480000C9480000C9480000C94800020
:100060000C9480000C9480000902120001010080B1
:100070003209040000000000000012011001FF001E
:100080000008C016DC050001010200011C03490044
:1000900044002000360030003100300035003000D0
:1000A00030003100300039001A0363007000650031
:1000B0002E006B0075002E00610063002E0074009E
:1000C00068000403090411241FBECFEFD8E0DEBF8F
:1000D000CDBF11E0A0E0B1E0ECEEF5E002C005908C
:1000E0000D92A230B107D9F721E0A2E0B1E001C042
:1000F0001D92A133B207E1F70E94E1020C94F402D1
:100100000C940000CF93FC01C181C13079F480E0F0
:100110000E94AF00909305018093040184E091E078
:100120009093160180931501C2E011C0C23071F4A2
:1001300081E00E94AF00909303018093020122E0CE
:1001400031E0309316012093150101C0C0E08C2FDF
:10015000CF91089587B18C7F87B9439A08958F70A6
:10016000806480937C0087EC80937A0080917A0091
:1001700086FDFCCF209178008091790090E0982F47
:100180008827820F911D0895CF93DF9380911701E7
:10019000835087FD8AC090911401209113012D3264
:1001A00009F081C0883009F07EC0CCE0D0E0C91BE6
:1001B000D109C55EDE4F83EC809307018AE5809309
:1001C0000101109206018881807621F0CE010E9403
:1001D000820060C08A81109210019981911106C03D
:1001E0001092110120E131E082E050C0953019F405
:1001F000809318013DC09630A9F59B81913019F488
:100200008AE790E004C0923041F488E690E0909351
:1002100016018093150182E121C09330F1F4811120
:1002200008C082EC90E0909316018093150184E061
:1002300015C0813041F488EA90E0909316018093D4
:1002400015018AE10BC0823041F48CE890E0909374
:100250001601809315018CE101C080E090E4909339
:10026000060118C0983079F0993031F480931A0162
:1002700020E131E080E00AC081E09A3009F080E0BE
:1002800020E131E003C02AE131E081E03093160142
:10029000209315019F81911104C09E81981708F445
:1002A000892F80930001109217018091010184FF32
:1002B00047C0809100018F3F09F442C0C82F8930A8
:1002C00008F0C8E08C1B809300018091070198E83A
:1002D000892780930701CC2331F1209115013091BA
:1002E00016018091060186FF0BC0A8E0B1E0F9017C
:1002F0008C2F8A0F94919D9331968A13FBCF09C05E
:10030000D901E8E0F1E08C2F8E0F9D9191938E132F
:10031000FCCF8FEF8C0F90E00196820F931F90938C
:100320001601809315016C2F88E091E00E94C901AD
:10033000CC5FCC3019F08FEF80930001C0930101A6
:1003400084E199B1947131F48150D9F71092180178
:1003500010921201DF91CF910895E9E6F0E08081DB
:1003600082608083E89A0895A82FB92F80E090E0FA
:1003700041E050EA609530E009C02D9182279795C1
:10038000879510F084279527305EC8F36F5FA8F338
:100390000895EADF8D939D930895CF93CFB7CF93C0
:1003A000DF93C3954C9BE9F74C9B0BC04C9B09C05A
:1003B0004C9B07C04C9B05C04C9B03C04C9B01C091
:1003C00089C06F93C0911401DD27C55EDE4F2F9366
:1003D00065E54C9B03C02F916F91E6CF0F931F9360
:1003E0004F9320E040E15F9309B1047104FB27F9CA
:1003F0003F9350E03BE039C0147140642F77012FE8
:100400005F5F1EC0406819B114712F7752501FC032
:10041000406409B12F770471D1F15F5F00C023C040
:10042000406219B12F77147191F15F5F00C025C050
:1004300004711027515012F45D5F00001150279590
:100440002C3F19B1C8F614710127015027952C3F94
:10045000C8F64227499309B1047110274F73115010
:1004600027952C3FA8F64695469519B1147179F059
:100470000127015027952C3F98F66B5A60F33150B5
:1004800009B1B0F600C011E01CBB002717C03B50FB
:100490003195C31BD04011E01CBB0881033CF9F02F
:1004A0000B34E9F0209112011981110F1213EDCFD5
:1004B000093651F10D3211F0013E39F7009319015F
:1004C0003F915F914F911F910F912F916F91CCB3FD
:1004D000C0FD67CFDF91CF91CFBFCF91189520910D
:1004E0001901222369F310911701112339F53430D2
:1004F0003AF13093170120931301109114013BE05E
:10050000311B309314011CC0009117010130B4F469
:100510000AE53091010134FD14C000930101C7E0E8
:10052000D1E013C0052710E000C000000BB91AC0CD
:10053000052710E0221F1DC010E021C04AE502C0BF
:1005400032ED432FC4E1D0E032E01AB114615C9A7D
:100550000BB11AB954E120E865E320FF05270BB978
:10056000279517951C3FF0F66695B8F7B1F720FF71
:1005700005270BB9279517951C3FD0F6279517959A
:1005800017FF052700001C3F0BB9B0F629913A95DB
:1005900019F70B7E10911801110FC651D0400BB9FD
:1005A00011F01093120111E01CBB00611AB11B7E07
:1005B000402F4B7E54E05A95F1F70BB91AB94BB95D
:1005C0007FCF0E94AA000E94AD01549A2FEF85EAC6
:1005D0009EE0215080409040E1F700C00000549818
:0C05E00078940E94C400FDCFF894FFCF77
:0205EC00FF5AB4
:00000001FF
